:040000006FEF00F0AE
:060008004D8260EF08F0DC
:100018004D80D8CF0CF0E8CF0DF0E0CF0EF0A4B2B1
:10002800A3A20BD0A492484A492A600E481805E1B9
:10003800EA0E491802E1486A496AA4B4A3A443D065
:10004800A4944A281F0B4A6E0F6A4A5004E04C5089
:1000580002E1010E0F6E0FB002D08A9E01D08A8E87
:10006800ABA202D08A9C2FD071AC0ED0010E106EBC
:100078004AA204D0040E4A6001D0106A10B002D01F
:100088008A9C01D01FD01FD089A40ED0010E116EFA
:100098004AA204D0080E4A6001D0116A11B002D0F9
:1000A8008A9C01D00FD00FD089A60DD0010E126EF8
:1000B8004AA204D00C0E4A6001D0126A12B002D0D3
:1000C8008A9C01D08A8C0EC0E0FF0DC0E8FF0CC0EE
:1000D800D8FF4D901000B8EF08F0070E606F2ED1D2
:1000E8004C5049E062D19E0E136E030E146E310E11
:1000F8009DEC09F00D0E20D18C0E136E010E146EBE
:10010800270E9DEC09F0F6D78C0E136E010E146EB7
:100118000F0E9DEC09F0EED78C0E136E010E146EC7
:10012800070E9DEC09F0E6D78A0E136E010E146EC9
:10013800070E9DEC09F0DED78A0E136E010E146EC1
:10014800030E9DEC09F0D6D78A0E136E010E146EBD
:100158009DEC09F0CFD78C0E136E010E146E000EB5
:100168009DEC09F0C7D78A0E136E010E146E000EAF
:100178009DEC09F0BFD73A50D96EDA6AD92ADF5018
:10018800300AB1E0010AB8E0030ABEE0010AC4E09F
:10019800070ACAE0010AD0E0030AD6E0010ADBE058
:1001A8000F0AE1E002D13AC01AF08DEC08F0C4D091
:1001B8003AC01BF042EC09F0BFD03AC01AF009EC83
:1001C80009F0BAD0410E136E560E146E18EC07F0F3
:1001D800000901E18984010EE1EC08F0000EE1EC70
:1001E80008F088D7410E136E760E146E18EC07F0DF
:1001F800000901E18984010EE1EC08F0080EE1EC48
:1002080008F078D7410E136E4E0E146E18EC07F0F6
:10021800000901E18984410E136E310E146E18EC49
:1002280007F0000901E18984410E136E390E146E3E
:1002380018EC07F0000901E18984410E136E370EAE
:10024800146E18EC07F0000901E18984410E136E61
:10025800360E146E18EC07F0000901E04BD78984BC
:1002680049D74C5001E0A1D06F6A6ECF3BF0E00E49
:100278003B16FBE1B7EC09F0010E4C6E3BD74C5036
:1002880001E093D0400E6F6E6E50E00B400AFCE127
:10029800010E0CD0606F89D04C5001E086D0600E02
:1002A8006F6E6E50E00B600AFCE1020E4C6E0D0E94
:1002B800F1D74C507AE0800E6F6E6E50E00B800ADA
:1002C800FCE14C6A17D74C0470E13AC020F0C4EC4A
:1002D80004F000096AE03A50D96EDA6A5A0EDF6013
:1002E80007D0410E136E5A0E146E18EC07F0B4D7EF
:1002F800410E136E7A0E146E18EC07F0ADD73AC0A3
:100308001AF028EC09F018D03AC01BF082EC09F07A
:1003180013D03AC01AF06EEC09F00ED03AC01DF0B6
:100328008AEC07F009D03AC01AF0C2EC07F004D002
:100338003AC01AF058EC09F00001ACD73A50D96E1F
:10034800DA6ADF50420AF4E0010AB3E0050ADCE0A9
:10035800010A01E12DD70B0A9FE0010AE4E0030A34
:1003680001E150D7010A01E17CD71D0AACE0010A7E
:1003780001E1B6D6070AA7E0020A01E123D7010A7C
:1003880001E11BD70D0AC5E03C0AB9E00A0A01E100
:1003980076D7010AC3E01F0A96E0010A01E103D7F4
:1003A800070A91E0020A01E11DD7410E136E60C0F1
:1003B80014F018EC07F0000901E189849D88120007
:1003C80071AE000C92EC09F01550D96EDA6A0E0E77
:1003D800D92613C0DEFF14C0DDFFE00E72166F5081
:1003E800070B1009721260AE000C61CF1DF062CFCE
:1003F80021F021A692D01550D96EDA6A040ED926BA
:10040800DF821DC016F0176A186A196A150ED8908F
:100418001636173618361936E82EF9D71550D96E0C
:10042800DA6A16C0DEFF17C0DEFF18C0DEFF19C08B
:10043800DEFF21C016F0E00E161616C017F0186A77
:10044800196A1A6A0D0ED8901736183619361A36E0
:10045800E82EF9D71550D96EDA6A1750DE121850FF
:10046800DE121950DE121A50DE1221C016F0030EE9
:10047800161616C017F0186A196A1A6A18C01AF000
:1004880017C019F0186A176A1550D96EDA6A17502A
:10049800DE121850DE121950DE121A50DE1263CF27
:1004A80016F0176A186A196A18C019F017C018F0F8
:1004B80016C017F0166A1550D96EDA6A1650DE1291
:1004C8001750DE121850DE121950DE121550D96E70
:1004D800DA6A6450DE12000EDE12DE12DE1265CF1A
:1004E8001EF01550D96EDA6A050ED9261E500F0B6C
:1004F800DF6E1EC016F0060E176ED8901632172E35
:10050800FCD7010E16161550D96EDA6A040ED926D4
:10051800DF501618FE0B161841D01550D96EDA6A3E
:10052800040ED926DF9221C016F0163A0F0E1616C1
:10053800010E16161550D96EDA6A040ED926DF5048
:100548001618FE0B1618DF6E1DC016F0176A186A0B
:10055800196A030ED8901636173618361936E82E4B
:10056800F9D71550D96EDA6A16C0DEFF17C0DEFF5C
:1005780018C0DEFF19C0DEFF1550D96EDA6A2138BF
:10058800E842070BDE12000EDE12DE12DE121550F4
:10059800D96EDA6A050ED92665500F0BDF6E155035
:1005A800D96EDA6A040ED926DFB023D01550D96E79
:1005B800DA6A050ED926DF50206E080E206401D0B5
:1005C800206E660E1B6E0F0E1C6E1F6A0FD01BC0AE
:1005D800D9FF1CC0DAFF15501F24E16EE26A060E2F
:1005E800E126DFCFE7FF1B4A1C2A1F2A20501F5C89
:1005F800EEE3609E00F07792010C1E6A1D6A1E50A1
:1006080031E11350D96EDA6A040ED926DFA217D069
:10061800010E1E6E1350D96EDA6A040ED926DFA0B9
:1006280007D01450D96EDA6A520EDF6E142A05D03C
:100638001450D96EDA6A540EF8D71D2AD3D0060E94
:100648001E6E1350D96EDA6A040ED926DFA005D0C3
:100658001450D96EDA6A720EE8D71450D96EDA6A75
:10066800740EE3D7090E1E6023D01E041A6E13C041
:1006780019F01AC015F0D89015321550195CD96EBA
:10068800DA6A030ED926DF501F6E1AB09ED01F3AC1
:100698000F0E1F169AD0370E01D0300E1F26145099
:1006A800D96EDA6A1FC0DFFF142A1D2A1E2A9AD0C3
:1006B8000A0E1E6028D01350D96EDA6A050ED926A4
:1006C800DF501F6E0F0E1F16090E1F6402D0370E63
:1006D80001D0300E1F261450D96EDA6A1FC0DFFF12
:1006E800142A1D2A1350D96EDA6A050ED926DF504E
:1006F80007E01350D96EDA6A040ED926DFA0D6D7E0
:100708001A0E1E6E6FD01A0E1E603DD01E50F60FC8
:100718001B6E1BC015F0D890153213501524D96ED6
:10072800DA6A060ED926DF501F6E1BB003D01F3AB7
:100738000F0E1F160F0E1F16090E1F6402D0370E5C
:1007480001D0300E1F261450D96EDA6A1FC0DFFFA1
:10075800142A1D2A1E2A1350D96EDA6A050ED926C4
:10076800DF50020DF60E156E16681E50176E186AC9
:100778001550172616501822F350171833E1F45065
:100788001818BEE02FD04B5026E01E0E1E6023D056
:100798001E50E60F1C6E020E1C600ED01350D96E50
:1007A800DA6A0E0ED926DECF15F0DDCF16F016C0A8
:1007B80015F0166A155006D01350D96EDA6A0E0E67
:1007C800D926DF501F6E1CA062D70F0E1F16090E08
:1007D8001F6463D760D71450D96EDA6A0D0EDF6EC6
:1007E8001D2A1E681E2801E00AD71D501200E00EBF
:1007F8007216050E721260A606D0720660A603D0A5
:10080800720660B6000C1350D96EDA6A050ED92646
:10081800DF501F6E080E1F6401D01F6E1350D96E73
:10082800DA6A040ED926DFA25FD01350D96EDA6ACD
:10083800DECF14F0DECF15F0DECF16F0DECF17F0E6
:10084800160E05D0D8901732163215321432E82E0B
:10085800F9D71450616E1350D96EDA6ADECF14F0EE
:10086800DECF15F0DECF16F0DECF17F0110E05D073
:10087800D8901732163215321432E82EF9D7030EF3
:1008880014161350D96EDA6ADECF18F0DECF19F0DD
:10089800DECF1AF0DECF1BF00E0E05D0D8901B323B
:1008A8001A3219321832E82EF9D71850E00B141002
:1008B8000809626E1350D96EDA6ADECF14F0DECF03
:1008C80015F0DECF16F0DECF17F015C014F016C005
:1008D80015F017C016F0176A1450636E1350D96ECE
:1008E800DA6ADF50646E23D01350D96EDA6ADECF2D
:1008F80014F0DECF15F0DECF16F0DECF17F0040EC1
:1009080005D0D8901732163215321432E82EF9D79E
:100918001450616E1350D96EDA6ADF50146E050EEA
:10092800156ED8901436152EFCD71450626E1FC061
:1009380065FF1350D96EDA6A040ED926DFA004D0F9
:100948001F504009656E1AD01F5018E0660E1C6EC5
:100958000F0E1D6E1E6A0FD013501E24D96EDA6A50
:10096800060ED9261CC0E1FF1DC0E2FFDFCFE7FF5E
:100978001C4A1D2A1E2A1F501E5CEEE36086010CCD
:10098800010E226E2050D96EDA6A720EDE1807E068
:100998002050D96EDA6A520EDE1801E0226A22B0BF
:1009A80002D02E9001D02E802050D96EDA6A5A0ECD
:1009B800DF6003D02E82080E02D02E92030E246E22
:1009C8002028136E24C014F0260E156E96EC05F040
:1009D800000901E1000C26C02AF027C02BF028C02E
:1009E8002CF029C02DF020502424216E2128136ECC
:1009F800010E146E260E156E96EC05F0000901E145
:100A0800000C26C02FF02EB026D02FC023F0080EE1
:100A1800236401D0236E256A1BD02550020D205077
:100A2800F3242424020F136E020E146E260E156E84
:100A380096EC05F0000901E1000C25C021F0060E36
:100A4800212621502A0FD96EDA6A26C0DFFF252A0F
:100A58002350255CE2E32A0E136EFBEF03F0896A4C
:100A68000F015D6BF80E5C17480EA76E7D6A670E66
:100A7800AF6E260EAC6E900EAB6EC40E8A6E3B0E39
:100A8800936E949C800E6F6E6E50E00B800AFCE1B2
:100A98000E017D6B200E706EB00E726EF869E30E5B
:100AA800F96FFA69FB69FC69E30EFD6FFE69FF697E
:100AB800180E136EE00E146E0E0E156E14C0D9FFCC
:100AC80015C0DAFFDF6A144A152A132EF7D7280E45
:100AD800136E480E146E0E0E156E14C0D9FF15C095
:100AE800DAFFDF6A144A152A132EF7D7D08EA5929B
:100AF8000F0EBD6EA00EBC6E0B0EBB6EA382A5942E
:100B0800C30E0F01526F500E516F0B0E506F99822A
:100B1800A384010ECD6E310EB16E9D8A8A8EC00EF1
:100B2800F26EC00C1550D96EDA6ADE6ADE6ADE6AC9
:100B3800DD6A53D01350D96EDA6ADF5001E1000C38
:100B48001550D96EDA6A040ED890DE36DE36DE36F7
:100B5800DD36D906D906E82EF7D71350D96EDA6AEA
:100B68002F0EDF6408D01350D96EDA6A3A0EDF60B0
:100B780002D0D00E1BD01350D96EDA6A400EDF6453
:100B880008D01350D96EDA6A470EDF6002D0C90E5A
:100B98000DD01350D96EDA6A600EDF64000C135062
:100BA800D96EDA6A670EDF60000CA90E166E176838
:100BB8001350D96EDA6ADF50186E196A1650182663
:100BC800175019221550D96EDA6A1850DE261950B6
:100BD800DE22000EDE22DE22132A14061428AAE1E1
:100BE800010C0001E66B33EC05F04C5023E146D0D4
:100BF800E80E136EC50E146E01EC03F00001E56FEC
:100C0800410E136EFAEC07F0E56113D0E76B0CD0D8
:100C1800410E136EE751C50FD96EDA6ADF50146EB4
:100C280018EC07F00001E72BE551E75DF1E39D883B
:100C380001D08984E80E156EE4EC01F000091EE08D
:100C4800D7D70D0E0001E7190CE1E651610FD96EF7
:100C5800DA6ADF6A610E3A6E71EC00F00001E66B49
:100C68000DD00A0EE7190AE0E651610FD96EDA6A6B
:100C7800E7C0DFFF630EE66101D0E62B3C0E136E82
:100C8800E70E146E96EC06F00009AFE0DAD71C6E9A
:100C98001C1C0E01F86F131C166ED8901632D890D3
:100CA8001632D8901632030E1616131CE00B1610C7
:100CB800F96F15B0F987131C166E050E176ED890CC
:100CC8001636172EFCD71450186E196A181C1A6E8F
:100CD800191C1B6E1B341B321A321B341B321A327E
:100CE8001B341B321A321A501610FA6F141C166E67
:100CF800050E176ED8901636172EFCD71550186E9D
:100D0800196A181C1A6E191C1B6E1B341B321A32F6
:100D18001B341B321A321B341B321A321A5016106B
:100D2800FB6F12001350D96EDA6A030ED9261350DE
:100D3800E16EE26A020EE126DE50E61801E1000CDF
:100D48001350D96EDA6A030ED926DF50156E1528AE
:100D5800186E1350D96EDA6A040ED926DE50185C64
:100D680001E3186A1350D96EDA6A030ED926DF50E8
:100D7800156E1350D96EDA6ADECF16F0DDCF17F094
:100D880015501624D96E000E1720DA6E1450E16E35
:100D9800E26ADFCFE7FF1350D96EDA6A030ED9266D
:100DA80018C0DFFF010C0150D96EDA6A030ED9268C
:100DB8000150E16EE26A020EE126DE50E61801E11A
:100DC800000C0150D96EDA6A030ED926DF50036E83
:100DD8000328066E0150D96EDA6A040ED926DE5051
:100DE800065C01E3066A0150D96EDA6A030ED92659
:100DF800DF50036E0150D96EDA6ADECF04F0DDCF22
:100E080005F003500424D96E000E0520DA6E025056
:100E1800E16EE26ADFCFE7FF0150D96EDA6A030EAE
:100E2800D92606C0DFFF010C1350D96EDA6A020E0C
:100E3800D926DF50156E1528186E1350D96EDA6A48
:100E4800040ED926DE50185C01E3186A1350D96ED7
:100E5800DA6A030ED9261850DE1801E1000C135087
:100E6800D96EDA6A020ED926DF50156E1350D96E84
:100E7800DA6ADECF16F0DDCF17F015501624D96EDA
:100E8800000E1720DA6E14C0DFFF1350D96EDA6A2D
:100E9800020ED92618C0DFFF010C0150D96EDA6A9C
:100EA800020ED926DF50036E0328066E0150D96E54
:100EB800DA6A040ED926DE50065C01E3066A0150A0
:100EC800D96EDA6A030ED9260650DE1801E1000C45
:100ED8000150D96EDA6A020ED926DF50036E01502E
:100EE800D96EDA6ADECF04F0DDCF05F003500424B2
:100EF800D96E000E0520DA6E02C0DFFF0150D96EF0
:100F0800DA6A020ED92606C0DFFF010C4C5035E123
:100F18001D28136E020E146E1E0E156E96EC05F04B
:100F280000092BE01D50030F136E020E146E220EE3
:100F3800156E96EC05F0000920E01D50050F136EA4
:100F4800020E146E260E156E96EC05F0000915E0DB
:100F58001D50070F136E020E146E2A0E156E96ECB6
:100F680005F000090AE022C013F026C014F02AC0D8
:100F780015F01E504BEC06F00D0C070C4C5035E1EB
:100F88001A28136E020E146E1B0E156E96EC05F0E1
:100F980000092BE01A50030F136E020E146E1F0E79
:100FA800156E96EC05F0000920E01A50050F136E37
:100FB800020E146E230E156E96EC05F0000915E06E
:100FC8001A50070F136E020E146E270E156E96EC4C
:100FD80005F000090AE01FC013F023C014F027C071
:100FE80015F01B5031EC08F00D0C070C1350D96E9E
:100FF800DA6A030ED9261350E16EE26A020EE12680
:10100800DE50E65C19E31350D96EDA6A020ED9266F
:10101800DF50146E1350D96EDA6A040ED926DF50E9
:10102800156E1450155C166E1350D96EDA6A030EDD
:10103800D926DF50162412001350D96EDA6A020E30
:10104800D926DF50146E1350D96EDA6A030ED926EA
:10105800DF50156E1450155C1200186E18C0E0FEB3
:1010680013C016F0D8901632D8901632D89016328F
:10107800030E16161350E00B16100E01E16F15B093
:10108800E18713C016F0050E176ED8901636172E86
:10109800FCD71438E8461F0B1610E26F14C016F080
:1010A800050E176ED8901636172EFCD71538E84659
:1010B8001F0B1610E36F1200E1CF07F0E2CF08F024
:1010C800D9CF09F0DACF0AF09DB89EA80CD0410E0E
:1010D800016E0B0E026ED7EC06F0000903E00BC0A0
:1010E800ADFF01D09D989EBA9DAA09D03C0E016E15
:1010F800AECF02F051EC07F0000901E189860AC081
:10110800DAFF09C0D9FF08C0E2FF07C0E1FF4D922E
:1011180011004C5028E11A28136E020E146E1B0E93
:10112800156E96EC05F000091EE01A50030F136EB9
:10113800020E146E1F0E156E96EC05F0000913E0F2
:101148001A50050F136E020E146E230E156E96ECD0
:1011580005F0000908E01FC013F023C014F01B506D
:101168009DEC09F00D0C070C640EF66E130EF76E6D
:10117800000EF86E00EE3CF010EE0AF00900F5CF14
:10118800EEFFE550E150FAE102EE00F0F80EEE6AEB
:10119800E806FDE101EE00F0800EEE6AE806FDE1EA
:1011A80000EE46F0070EEE6AE806FDE14D904D921E
:1011B800000EF86E0001F5EF05F0196E19380F0BE7
:1011C8001A6E090E1A6402D0370E01D0300E1A2694
:1011D800410E136E1AC014F018EC07F0000901E173
:1011E800898419500F0B1A6E090E1A6402D0370E33
:1011F80001D0300E1A26410E136E1AC014F018ECE6
:1012080007F00009D8B4898412001A28136E030E57
:10121800146E1B0E156E96EC05F0000914E01A50BA
:10122800040F136E020E146E1F0E156E96EC05F069
:10123800000909E01BC013F01CC014F01FC015F012
:10124800A5EC09F00D0C070C1B6A1C6A1D6A1E6AC6
:101258001A28136E010E146E1B0E156E96EC05F00F
:1012680000090BE0020E1B181C101D101E1005E1D2
:10127800719C899489968A8C0D0C070C1B28136E17
:10128800030E146E1D0E156E96EC05F000090BE0AA
:101298001DC013F01EC014F0ACEC09F01C6E1C50FD
:1012A800E1EC08F00D0C070C1A28136E020E146EF0
:1012B8001B0E156E96EC05F000090BE0100E1B18BE
:1012C8001C101D101E1005E1800E6F6EF26A80EF73
:1012D8003EF0070C1A28136E010E146E1B0E156EC5
:1012E80096EC05F0000909E01B501C101D101E109B
:1012F800010ED8B4000E4B6E0D0C070C71507F0B0D
:101308001C6E410E136E460E146E18EC07F00009A1
:1013180001E189841C50E1EC08F00D0CA39248C04F
:1013280046F049C047F0A38246C013F047C014F006
:101338001200156E15C043FE13C044FE14C045FECE
:10134800120013C0E9FF14C0EAFF15C0EFFF120036
:1013580013C0E9FF14C0EAFFEF50120000010000BB
:101368008000020000F8A392486A496AA38212002A
:00000001FF
